:020000040800F2
:1000000008350020D5000008DD000008DF000008EA
:1000100000000000000000000000000000000000E0
:10002000000000000000000000000000E1000008E7
:100030000000000000000000E3000008453C00084C
:10004000E7000008E7000008E7000008E7000008F4
:10005000E7000008E7000008A9020008B302000852
:10006000E7000008E7000008E7000008E7000008D4
:10007000C5010008E7000008E7000008E7000008E5
:10008000E7000008E7000008493D0008E700000815
:10009000E7000008E7000008E7000008E7000008A4
:1000A000E7000008E7000008B53900089546000899
:1000B000B5460008DD460008E7000008A95700081B
:1000C0000348854600F03CF800480047FD5700080B
:1000D000083500200448804704480047FEE7FEE753
:1000E000FEE7FEE7FEE7FEE7D13C0008C10000089E
:1000F00030B50B46014600202022012409E00D46C0
:10010000D5409D4205D31D469540491B2546954047
:1001100040191546521E002DF1DC30BDD2B201E06F
:100120000270401C491EFBD270470022F6E710B552
:1001300013460A4604461946FFF7F0FF204610BD55
:10014000064C0125064E05E0E36807CC2B430C3C2A
:1001500098471034B442F7D3FFF7B6FF5C6B000842
:100160007C6B000870B58D180478401CA207920FB4
:1001700001D10278401C231106D10378401C03E012
:1001800006780E70401C491C521EF9D1002B15D068
:1001900002780C268A1A3440401C0C2C03D0A4018F
:1001A000121B9B1C08E004782402121B401CF8E779
:1001B00014780C70491C521C5B1EF9D5A942D3D38C
:1001C000002070BD10B5024805F054FC10BD0000C1
:1001D0007830002038B504460025002000902068C3
:1001E00080688007800F01280ED120680068C00752
:1001F000C00F002806D12068C0680121C90308404B
:10020000884201D1012000E00020002843D120686D
:10021000806822490840002801D1012000E0002028
:10022000002809D1606C102108436064A06C012192
:100230000843A064012038BD20688068012108437C
:1002400021688860164917480068FFF751FF009041
:1002500002E00098401E009000980028F9D100F0BC
:100260007DFB05460EE000F079FB401B022809D912
:10027000606C102108436064A06C01210843A064F5
:100280000120D8E720680068C007C00F012148405E
:1002900048400028E7D00020CDE70000170000808C
:1002A00040420F00BC16002010B5042005F012FEDD
:1002B00010BD10B5402005F00DFE0120800205F0B4
:1002C00009FE0120C00205F005FE0120000305F033
:1002D00001FE0120400305F0FDFD0120800305F033
:1002E000F9FD10BD70B504460025002600BF402072
:1002F000005D012801D1022070BD0121402001557F
:1003000000BF206880688007800F01280CD120681A
:1003100000680840002805D12068C068C90308406B
:10032000884201D1012000E0002000282FD1606C1C
:10033000FF210131884302210843606420688068FE
:10034000890708432168886000F008FB064611E031
:1003500000F004FB801B02280CD9606C022188434A
:1003600010210843606400BF00214020015500BFF8
:100370000120C1E720688068C00FC0070028E7D1CE
:10038000606C0221884301210843606404E0606CD2
:10039000202108436064012500BF00214020015551
:1003A00000BF2846A8E7704770B504460026002520
:1003B000002C01D1012070BD606C002806D1A06422
:1003C000002140200155204600F0C6F8606C102145
:1003D000084000287ED1002EFCD1206880680421CE
:1003E000084080080028F5D1606C8901884302210B
:1003F00008436064206880688007800F01280DD161
:1004000020680068C007C00F002805D12068C068B8
:1004100089030840884201D1012000E00020002823
:100420000FD12068C06818218843A168084321685B
:10043000C8602068006980008008616808432168FE
:1004400008612068C068424908402168C860A06906
:100450008003E169C9030843216A49030843616BCA
:10046000012902D00121090300E000210843E168CD
:1004700008432169022901D1042100E00021084339
:10048000216B490008430543606A012805D1206AB1
:10049000002802D1012000040543FF21C231A06AD7
:1004A000884203D0E16AA06A084305432068C06817
:1004B00028432168C86001210907A06B884216D033
:1004C000A06B012813D0A06B022810D0A06B0328CA
:1004D0000DD000E034E0A06B042808D0A06B052804
:1004E00005D0A06B062802D0A06B07280DD120688C
:1004F0004069C008C0002168486120684069218FB8
:100500004907490F0843216848612068C0681149BC
:100510000840A84208D10020A064606C02218843F2
:1005200001210843606410E0606C022188431021BF
:1005300008436064A06C01210843A064012604E024
:10054000606C1021084360640126304633E70000E8
:100550001902FEFFE7FF3F8310B586B004461E492F
:100560002068884236D100BF1C488069491508437D
:100570001A4988610846806949150840009000BF03
:1005800000BF0C200190032002900020039001A9DD
:10059000134800F0D1F84F20019003200290002072
:1005A000039001A90920C00600F0C6F803200190BD
:1005B00002900020039001A90A4800F0BDF8002233
:1005C00011460C2000F01EFB0C2000F00FFB204613
:1005D000FFF788FE06B010BD002401400010024065
:1005E000000800480004004870B504460025206853
:1005F0008068042108408008002843D100BF4020C3
:10060000005D012801D1022070BD0121402001556B
:1006100000BFE069012803D02046FFF7DBFD054657
:10062000002D30D1606C19490840FF210131084389
:1006300060640020A06400BF00214020015500BF7D
:100640001C2021680860606908280CD12068406877
:1006500004218843216848602068406818210843C5
:100660002168486006E0206840681C210843216832
:10067000486000BF00BF20688068042108432168EB
:10068000886000E002252846BEE70000FEF1FFFF7B
:1006900031B5002400F062F9044600BF00F05EF9B5
:1006A000001B00998842F9D338BD000010B50446FC
:1006B0000121C902601A8C4226D008DC042C11D01A
:1006C000402C13D001208002201A29D124E00121DE
:1006D000C902401A21D04900401A1FD04900401ACF
:1006E0001ED11CE0104805F06DFD1AE040210F48B6
:1006F00000F020F9012803D10B4805F0B1FD02E01C
:10070000094805F0A1FD0CE009480068002802D066
:1007100000200849086004E000BF00BF00BF00E0FF
:1007200010BD00BF00BFFBE7842C00200010004874
:10073000A41600209C16002078B503460022002451
:100740000020E3E0012696400D6835402C46002C41
:100750007ED04D68022D02D04D68122D15D1D508DE
:10076000AE001D462035A8595507EE0E0F25B540A1
:100770000646AE4330465607F60E0D69B54028438F
:10078000D508AD001E462036705118685600032566
:10079000B5400646AE4330460D79AD07AD0F560065
:1007A000B540284318604D68012D08D04D68022DD2
:1007B00005D04D68112D02D04D68122D18D19868C2
:1007C00056000325B5400646AE4330465600CD6878
:1007D000B540284398605868012595400646AE43C9
:1007E000304610264D6835402D0995402843586005
:1007F000D86856000325B5400646AE43304656003D
:100800008D68B5402843D860012636074D683540CD
:10081000B5427AD100BF404DAD69012635433E4E09
:10082000B5613546AD69ED07ED0F009500BF00BF1E
:100830003A4D9608B600A85995072E0F0F25B540DA
:100840000646AE4330460925ED06AB4203D100E033
:100850005BE0002514E0324DAB4201D101250FE0F1
:10086000304DAB4201D102250AE02F4DAB4201D100
:10087000032505E02D4DAB4201D1042500E00525FF
:100880009607360FB5402843244D9608B600A85168
:10089000274D28680546A5432846012636044D689D
:1008A0003540B54202D1054625432846204D2860F3
:1008B00068680546A5432846012676044D683540FC
:1008C000B54202D1054625432846194D6860A868FF
:1008D0000546A5432846012636054D683540B542F4
:1008E00002D1054625432846114DA860E868054613
:1008F000A5432846012676054D683540B54202D10C
:100900000546254328460A4DE860521C0D68D5402F
:10091000002D00D016E778BD00100240080001400D
:100920000004004800080048000C0048001000487F
:1009300000040140024613690B40002B01D0012046
:1009400000E00020704742694A4042617047002A37
:1009500001D0816100E081627047000001480068B9
:10096000704700001401002002463520805C0228F8
:100970000FD03520805C12280BD03520805C2228D7
:1009800007D03520805C322803D03520805C422897
:1009900001D10220704700BF3420805C012801D1C2
:1009A0000220F7E701233420835400BF02233520BF
:1009B000835410680068400840001368186010688D
:1009C000006801231B0398431368186010680068CF
:1009D00008431368186010680068012318431368FF
:1009E000186001233520835400BF00233420835432
:1009F00000BF0020CEE7000010B50446002C01D156
:100A0000012010BD3520005D002805D100213420D3
:100A10000155204600F052F802213520015520688A
:100A2000006840084000216808600F2109066068DE
:100A3000884321680861206880680121C9038843D0
:100A400021688860A06800280FD0E068012806D1DE
:100A50000121C903A06808432168886005E02121BD
:100A60008902A068084321688860E068022802D1F2
:100A7000800221684860206840680F490843216867
:100A80004860616920690843A16909020843216837
:100A9000C860216AE069084321680860206800682E
:100AA00001210843216808600020A063012135204E
:100AB00001550020A5E700000080000210B586B0B7
:100AC00004462449206888421ED103200002019078
:100AD0001220029001200390032004900120059031
:100AE00001A91D48FFF728FE00BF1C48C06901216D
:100AF000490508431949C8610846C06901214905EB
:100B00000840009000BF22E01549206888421ED1AD
:100B10000320800201901220029001200390032004
:100B200004900120059001A90B48FFF705FE00BFC6
:100B30000A48C0690121890508430849C861084677
:100B4000C069012189050840009000BF00BF06B0C0
:100B500010BD000000540040000400480010024096
:100B60000058004002480068401C01490860704776
:100B70001401002010B506480068102108430449FC
:100B80000860002000F006F800F018F8002010BD02
:100B90000020024070B5044601F09CFA06467D2113
:100BA000C900FFF7A5FA054601F09AFF0022214689
:100BB000501E00F027F8002070BD000008B500BFEF
:100BC000094880690121084307498861084680690E
:100BD000C007C00F009000BF00BF00221146501E8A
:100BE00000F010F808BD00000010024000BFC2066F
:100BF000D20E01219140024A116000BF70470000EF
:100C000000E100E070B504460D4616462946204630
:100C100002F044FC70BD70B505460C4680202040B3
:100C2000802807D16006400E1C2670432E462836C9
:100C3000811905E01C2060432E46FF3609368119D4
:100C4000002A03D1002088728B8004E00120887282
:100C5000CB80180C0881002070BD70B504460D468D
:100C60001C21694323462833C9180A698721890052
:100C70000859294604F070F970BD70B504460D4658
:100C80001C2169432346FF330933C9180A698721A8
:100C900089000859294604F0D6F970BD70B502469E
:100CA0000B4680201840802807D15806400E1C248F
:100CB000604314462834011907E05806400E1C24EE
:100CC00060431446FF34093401195806400E087079
:100CD00080201840C009487000BFFF20E930805CC8
:100CE000012801D1022070BD0124FF20E930845485
:100CF00000BF887A00284FD14878002825D00C788A
:100D0000A4001068005B4024204000280BD00C7821
:100D1000A4001068005B7E4C20407E4C20430D7880
:100D2000AD00146860530D78AD001468645B784DB5
:100D300030352C4020460124E403044380252C4315
:100D40000E78B6001568AC53D9E00C78A400106892
:100D5000005B0124A403204000280BD00C78A400E1
:100D60001068005B6A4C20406B4C20430D78AD004E
:100D7000146860530D78AD001468645B664DF13DF6
:100D80002C4020460124E403044380252C430E78A4
:100D9000B6001568AC53B2E04878002857D10C78FB
:100DA000A4001068005B0124A403204000280BD09D
:100DB0000C78A4001068005B554C2040564C204332
:100DC0000D78AD00146860530C78A4001068005BC7
:100DD0004024204000280BD00C78A4001068005B51
:100DE0004B4C20404B4C20430D78AD0014686053B1
:100DF0000C78A4001068005B454C2040454C204313
:100E00000D78AD00146860530D78AD001468645B14
:100E1000414DF13D2C4020460124E403044380254C
:100E20002C430E78B6001568AC530D78AD001468ED
:100E3000645B374D30352C4020460124E4030443E5
:100E400080252C430E78B6001568AC5357E00C781B
:100E5000A4001068005B0124A403204000280BD0EC
:100E60000C78A4001068005B294C20402A4C2043D9
:100E70000D78AD00146860530C78A4001068005B16
:100E80004024204000280BD00C78A4001068005BA0
:100E90001F4C20401F4C20430D78AD001468605358
:100EA0000C78A4001068005B194C20401A4C2043B9
:100EB0000D78AD00146860530D78AD001468645B64
:100EC000134D30352C4020460124E4030443802593
:100ED0002C430E78B6001568AC530D78AD0014683D
:100EE000645B0D4DF13D2C4020460124E403044396
:100EF00080252C430E78B6001568AC5300BF00BFA8
:100F00000024FF20E930845400BF0020EBE60000FD
:100F10008F8F0000C080000080C0000070B50246C6
:100F20000B4680201840802807D15806400E1C240C
:100F3000604314462834011905E01C205843144628
:100F4000FF3409340119002088705806400E0870DB
:100F500080201840C009487000BFFF20E930805C45
:100F6000012801D1022070BD0124FF20E930845402
:100F700000BF4878002828D00C78A4001068005BD7
:100F80004024204000280BD00C78A4001068005B9F
:100F9000274C2040274C20430D78AD001468605347
:100FA0000D78AD001468645B214D30352C4020462F
:100FB0001024604020246040A402044380252C4378
:100FC0000E78B6001568AC532AE00C78A4001068BF
:100FD000005B0124A403204000280BD00C78A4005F
:100FE0001068005B124C2040134C20430D78AD007C
:100FF000146860530D78AD001468645B0E4DF13DCC
:101000002C40204601242403604064006040A4007A
:10101000044380252C430E78B6001568AC5300BFFE
:1010200000BF0024FF20E930845400BF00209AE76D
:101030008F8F0000C080000080C00000024648067C
:10104000400E1C2358431346FF330933C018008B4E
:1010500080B27047FFB581B004460D460020009075
:1010600080202840802807D16806400E1C23584362
:1010700023462833C11807E06806400E1C23584356
:101080002346FF330933C1186806400E08708020DC
:101090002840C0094870CA600498C87000BFFF208B
:1010A000E930005D012802D1022005B0F0BD012326
:1010B000FF20E930035500BFC878002806D001287A
:1010C0002BD0022810D0032835D118E00B789B00D4
:1010D0002068C05AE64B1840FF30FF3002300E78CF
:1010E000B6002368985326E00B789B002068C05A0E
:1010F000DF4B18400E78B600236898531BE00B783E
:101100009B002068C05ADA4B184003235B02C018CA
:101110000E78B600236898530DE00B789B0020688A
:10112000C05AD34B184001239B02C0180E78B6005A
:101130002368985300BF00BF0B789B002068C05AFB
:10114000CC4B1840CC4B18430B7818430E78B600A4
:1011500023689853887A00287ED14878002835D0B3
:1011600088884010430020684030008A0E78F600DE
:1011700080190127BF022668F61983530B789B005C
:101180002068C05A4023184000280CD00B789B00E0
:101190002068C05AB74B1840B74B403318430E78FD
:1011A000B600236898530E78B60023689B5BB14E57
:1011B000303633401846202358409B020343802694
:1011C00033430F78BF002668F35348E18888401006
:1011D000430020684030008A0E78F6008019001D18
:1011E0000127BF022668F619835320684030008A21
:1011F0000E78F6008019801D2668F6198319CE68CE
:101200003E2E0FD9CE68F602300C0E7BF606F60E97
:10121000002E01D1461EB0B286020127FF033E43D5
:101220001E800CE0CE68F603300C0E7BF607F60F3E
:10123000002E01D0461CB0B28606360C1E800B78FC
:101240009B002068C05A01239B03184000280DD042
:101250000B789B00206800E01EE0C05A854B1840C8
:10126000864B18430E78B600236898530E78B60064
:1012700023689B5B814EF13E3340184601231B03DC
:1012800058405B0058409B000343802633430F784F
:10129000BF002668F353E2E00B789B002068C05A39
:1012A000FF2301331843734B1840734B18430E78D8
:1012B000B60023689853C888401043002068403027
:1012C000008A0E78F60080190127BF022668F619F9
:1012D000835308894010430020684030008A0E780C
:1012E000F6008019001D2668F619835348780028F7
:1012F0005CD10B789B002068C05A3B011840002845
:101300000BD00B789B002068C05A5A4B18405B4B9F
:1013100018430E78B600236898530B789B0020681A
:10132000C05A4023184000280CD00B789B0020683E
:10133000C05A504B1840504B403318430E78B600FB
:10134000236898530B789B002068C05A494B18407B
:10135000494B403318430E78B600236898530E78F3
:10136000B60023689B5B454EF13E3340184601238F
:101370001B0358405B0058409B00034380263343C7
:101380000F78BF002668F3530E78B60023689B5B86
:10139000384E3036334018460123DB0303438026A2
:1013A00033430F78BF002668F35358E00B789B0057
:1013B0002068C05A01239B03184000280BD00B78EB
:1013C0009B002068C05A2B4B18402C4B18430E78BA
:1013D000B600236898530B789B002068C05A4023BE
:1013E000184000280CD00B789B002068C05A214B75
:1013F0001840214B403318430E78B60023689853A9
:101400000B789B002068C05A1A4B18401B4B18439E
:101410000E78B600236898530E78B60023689B5B5D
:10142000144E3036334018460123DB030343802635
:1014300033430F78BF002668F3530E78B600236855
:101440009B5B0E4EF13E334018460123DB03034302
:10145000802633430F78BF002668F35300BF00BFD8
:101460000023FF20E930035500BF00981DE600006F
:101470008F8900008F8F00008080000080C00000F6
:10148000FFB504460D466806400E1C225043224616
:10149000FF3209328118029808614B61002088618F
:1014A00048706806400E087000BFFF20E930005DFC
:1014B000012802D1022004B0F0BD0122FF20E93052
:1014C000025500BFCA684869904204D9CB68486990
:1014D000C01A486102E04B6900204861887A002800
:1014E00027D120684030008A0E78F6008019801DD0
:1014F0000127BF022668F61982193E2B0DD9DE029C
:10150000300CDE06F60E002E01D1461EB0B2860269
:101510000127FF033E4316800AE0DE03300CDE079E
:10152000F60F002E01D0461CB0B28606360C16808F
:1015300039E04878002827D120684030008A0E78AA
:10154000F6008019801D0127BF022668F61982194E
:101550003E2B0DD9DE02300CDE06F60E002E01D138
:10156000461EB0B286020127FF033E4316800AE002
:10157000DE03300CDE07F60F002E01D0461CB0B2A1
:101580008606360C16800EE0487801280BD12068BC
:101590004030008A0E78F6008019801C0127BF02B7
:1015A0002668F61983530E78B6002268925B0C4EBB
:1015B0003240104601221203504052005040920027
:1015C0000243802632430F78BF002668F25300BFE3
:1015D0000022FF20E930025500BF00206BE7000029
:1015E0008FBF000070B502460B4600BFFF20E930F8
:1015F000805C012801D1022070BD0124FF20E93068
:10160000845400BF80201840802807D15806400E1F
:101610001C24604314462834011905E01C2058435B
:101620001446FF3409340119012088705806400E11
:10163000087080201840C00948700878002814D12C
:101640000D78AD001468645B204D2C4020460124C9
:101650002403604010246040E402044380252C43AE
:101660000E78B6001568AC5328E04878002811D0F1
:101670000D78AD001468645B154D2C402046102495
:101680006040E402044380252C430E78B6001568C0
:10169000AC5313E00D78AD001468645B0B4D303D26
:1016A0002C402046012424036040E40004438025AC
:1016B0002C430E78B6001568AC5300BF00BF002461
:1016C000FF20E930845400BF002095E7BFBF000031
:1016D000BF8F0000FFB582B005460F461E460020B2
:1016E00001907806400E1C214843294628314418B1
:1016F0000498206166610020A06101206070780676
:10170000400E207000BFFF20E930405D012802D16B
:10171000022006B0F0BD0121FF20E930415500BF95
:10172000E1686069884204D9E6686069801B60618D
:1017300002E0666900206061A07A002813D1B3B28C
:10174000A28821692868009002F01AF928684030C0
:10175000008A2278D2008018801C01239B022A680C
:10176000D2188652A5E0217889002868405A402185
:10177000084000283BD06078002826D128684030F7
:10178000008A2278D2008018801D0B012A68D218A6
:1017900081183E2E0DD9F202100CF206D20E002A4C
:1017A00001D1421E90B282020123DB031A430A8058
:1017B0000AE0F203100CF207D20F002A01D0421CFB
:1017C00090B28206120C0A800EE0607801280BD1DC
:1017D00028684030008A2278D2008018801C0123BB
:1017E0009B022A68D2188652208901903BE06078DB
:1017F000002827D128684030008A2278D20080183B
:10180000801C01239B022A68D21881183E2E0DD914
:10181000F202100CF206D20E002A01D1421E90B242
:1018200082020123DB031A430A800AE0F203100C50
:10183000F207D20F002A01D0421C90B28206120C8D
:101840000A800EE0607801280BD128684030008AB9
:101850002278D2008018801C01239B022A68D218AB
:101860008652E0880190B3B2216928680090019AFD
:1018700002F086F8607800280CD121788900286869
:10188000405A1A4908401A490843227892002968A8
:1018900088520EE0607801280BD1217889002868F1
:1018A000405A124908401349084322789200296897
:1018B0008852227892002968895A0C4A30321140A5
:1018C00008461021484020214840890201438022D7
:1018D000114323789B002A68D15200BF0021FF20CA
:1018E000E930415500BF002013E700008F8F000052
:1018F000C080000080C0000070B50446002520684C
:10190000403080880121C9030840884202D1204626
:1019100001F000FE206840308088012189020840E3
:1019200088420DD12068403080888843216840314A
:101930008880204600F02AF90021204600F05CF95A
:10194000206840308088012189030840884206D100
:101950002068403080888843216840318880206832
:1019600040308088012149030840884206D1206820
:10197000403080888843216840318880206840302A
:101980008088012109030840884218D1206840302E
:10199000008804218843216840310880BD252D023C
:1019A000206840300580204600F008F9206840306B
:1019B000808801210903884321684031888020689C
:1019C000403080880121C9020840884222D1206825
:1019D00040308088884321684031888020684030CA
:1019E0000088082108432168403108802068403081
:1019F0000088042108432168403108802068403075
:101A00008088012109030840000B002802D12046EC
:101A100000F028F920684030808801214902084000
:101A2000884209D12068403080888843216840314D
:101A30008880204600F0D8F8206840308088FF2158
:101A400001310840884206D12068403080888843B0
:101A500021684031888070BD70B50446002500269D
:101A6000002C01D1012070BDFF20EA30005D00286C
:101A700006D10021FF20E9300155204600F062F830
:101A80000321FF20EA30015500251BE001221C2024
:101A9000684321462831401842701C2068430D5489
:101AA00000221C2068434018C2701C206843401864
:101AB000C2601C206843401802611C206843401823
:101AC00042616D1C6068A842E0D800251BE000223E
:101AD0001C2068432146FF310931401842701C2008
:101AE00068430D541C2068434018C2701C20684392
:101AF0004018C2601C206843401802611C206843E3
:101B0000401842616D1C6068A842E0D8012120683D
:101B10004030018000212068403001802068403042
:101B20008180206840300182BD2636022068403026
:101B30000680242001550121FF20EA3001550020B4
:101B400091E7000038B504460E492068884217D155
:101B500000BF0D48C0690121C90508430A49C86191
:101B60000846C0690121C9050840009000BF00BFB8
:101B7000002201211F20FFF745F81F20FFF736F84C
:101B800038BD0000005C00400010024070B5044603
:101B90000125A068022801D100BF01E0012500BF96
:101BA00000BF872189000859294603F068FB872177
:101BB0008900085903F020FB70BD000010B50446F1
:101BC000A069002807D00748006906218843054915
:101BD000086102F03DF887218900085903F032FBC3
:101BE00010BD000000ED00E010B50446872189001B
:101BF000085903F02FFB10BD024600BFFF20E9305B
:101C0000805C012801D1022070470123FF20E930C8
:101C1000835400BF002904D18023106840308381A1
:101C200001E02420815400BF0023FF20E9308354C9
:101C300000BF0020E8E710B5044687218900085955
:101C40002146FF31ED3103F029FB10BD0146086844
:101C50004030008B0122D20310430A6840321083C7
:101C60000020704710B5044687218900085903F009
:101C70006BFBA069002805D00348006906210843D2
:101C80000149086110BD000000ED00E0F8B5044610
:101C9000002500260121090420680840884266D1F9
:101CA0005648006A032109020840032212026168B3
:101CB000114088425BD000BF5048C069012109072C
:101CC00008434E49C8610846C069090408400090AD
:101CD00000BF00BF4A48006809150843484908602A
:101CE000FEF73CFE054606E0FEF738FE401B642882
:101CF00001D90320F8BD42480068FF2101310840A6
:101D00000028F1D03D48006A0321090288430646B5
:101D10003A48006A01210904084338490862084624
:101D2000006A0121090488433449086208460662B2
:101D300002203040002811D0FEF710FE054607E0D3
:101D4000FEF70CFE401B2F49884201D90320D1E742
:101D50002A48006A022108400028F1D02748006A7A
:101D600003210902884361680843244908622078F6
:101D7000C007C00F002807D02048006B80088000F3
:101D8000A16808431D490863022120680840022811
:101D900008D11A48006B032109048843E16808430D
:101DA00016490863202120680840202807D11348DD
:101DB000006B102188432169084310490863012101
:101DC000490420680840884207D10C48006B8021F4
:101DD0008843A169084309490863012189022068F1
:101DE0000840884207D10548006B4021884361695B
:101DF00008430249086300207CE70000001002400D
:101E0000007000408813000070B504460E4600259F
:101E1000AD480068C007C00FB0426ED2AA48006843
:101E2000400840003043A849086008460068C007E1
:101E3000C00FB04201D0012070BD022120680840CF
:101E4000022807D1A1484068F0218843A1680843CF
:101E50009E4948602078C007C00F002848D06068BD
:101E6000012808D199480068012149040840002848
:101E700021D10120E0E76068022808D1934800687A
:101E8000012149060840002815D10120D4E76068E7
:101E9000032808D18D48406B01210904084000281F
:101EA00009D10120C8E789480068022108400028BC
:101EB00001D10120C0E78548406880088000616842
:101EC000084382494860FEF749FD054660680128DD
:101ED0000FD107E0FEF742FD401B7D49884201D942
:101EE0000320A9E7794840680C2108400428F1D173
:101EF000D6E06068022810D108E031E0FEF72EFD40
:101F0000401B7349884201D9032095E76F48406818
:101F10000C2108400828F1D1C2E0606803280FD1E5
:101F200007E0FEF71BFD401B6949884201D90320E9
:101F300082E7664840680C2108400C28F1D1AFE0E8
:101F400007E0FEF70BFD401B6149884201D90320E1
:101F500072E75E4840680C2108400028F1D19FE0FC
:101F6000022120680840022807D158484068F02123
:101F70008843A1680843554948602078C007C00FCE
:101F800000287ED06068012808D1504800680121EF
:101F900049040840002821D101204DE7606802284B
:101FA00008D14A480068012149060840002815D197
:101FB000012041E76068032808D14448406B0121B3
:101FC00009040840002809D1012035E73F4800688E
:101FD00002210840002801D101202DE73B4840683C
:101FE000800880006168084338494860FEF7B6FC05
:101FF0000546606801280FD107E0FEF7AFFC401BE3
:102000003349884201D9032016E7304840680C2143
:1020100008400428F1D134E0606802280FD107E0BD
:10202000FEF79CFC401B2A49884201D9032003E7A4
:10203000264840680C2108400828F1D121E060685A
:1020400003280FD107E0FEF789FC401B2049884296
:1020500001D90320F0E61D4840680C2108400C28F7
:10206000F1D10EE007E0FEF779FC401B18498842E9
:1020700001D90320E0E6154840680C2108400028FB
:10208000F1D1114800684008400030430E49086013
:1020900008460068C007C00FB04201D00120CBE65F
:1020A000042120680840042808D108484068072116
:1020B00009028843E1680843044948600020FEF7AC
:1020C00069FD0020B8E60000002002400010024038
:1020D0008813000010B500F025F806494968F02281
:1020E00011400909044A515CC84004490860084687
:1020F000006810BD00100240C06A0008BC16002035
:1021000010B5FFF7E7FF05494968072212021140A1
:10211000090A034A515CC84010BD0000001002408B
:10212000C06A0008F0B589B02FA001460EC9C0688A
:1021300005AC0EC4089030A001460EC9C06801ACC1
:102140000EC40490002400260027002500200090E3
:102150002D4844680C20204000283DD0042804D09D
:10216000082805D00C2836D132E02848009036E007
:102170000F2080042040800C05A90D5C2248C06A15
:102180000007000F01A90E5C0320C00320400121BD
:102190000904884206D131461C48FDF7A9FF68436F
:1021A000074613E00320C00320400321C9038842EF
:1021B00006D131461648FDF79BFF6843074605E008
:1021C00031461248FDF794FF68430746009706E042
:1021D0000F48009003E000BF0C48009000BF00BF14
:1021E000009809B0F0BD00000203040506070809C5
:1021F0000A0B0C0D0E0F1010010203040506070850
:10220000090A0B0C0D0E0F100010024000127A008C
:10221000006CDC0238B5044600252078C007C00FEA
:1022200000286FD0FE4840680C21084004280CD0DC
:10223000FB4840680840082813D1F9484068490322
:1022400008400121090488420BD1F54800680121AA
:10225000490408400028E4D06068002852D10120D9
:1022600038BD00BFEE480068012109048843EC49ED
:10227000086008460068012189048843E84908602D
:1022800000BFFEF76BFB054606E0FEF767FB401B51
:10229000642801D90320E3E7E148006801214904EB
:1022A00008400028F1D100BF6068012806D1DC4851
:1022B000006849100843DA49086032E06068002885
:1022C0000ED1D7480068012109048843D449086029
:1022D00008460068012189048843D149086020E04C
:1022E000606805280FD1CE480068012189040843A1
:1022F000CB49086008460068012109040843C84921
:1023000008600EE036E0C6480068012109048843F1
:10231000C349086008460068012189048843C04910
:10232000086000BF6068002812D0FEF717FB054662
:1023300006E0FEF713FB401B642801D903208FE75A
:10234000B74800680121490408400028F1D011E095
:10235000FEF704FB054606E0FEF700FB401B642881
:1023600001D903207CE7AE480068012149040840F8
:102370000028F1D1022120680840022862D1A84833
:1023800040680C21084000280CD0A548406808404F
:1023900008281CD1A2484068490308400121C9030C
:1023A000884214D19E48006802210840002804D0C9
:1023B000E068012801D0012052E799480068F8211F
:1023C00088432169C9000843954908603AE0E068FC
:1023D000002820D0924800680121084390490860F5
:1023E000FEF7BCFA054606E0FEF7B8FA401B642883
:1023F00001D9032034E78A480068022108400028F8
:10240000F2D087480068F82188432169C900084351
:102410008349086016E0824800684008400080490F
:102420000860FEF79BFA054606E0FEF797FA401BA8
:10243000642801D9032013E7794800680221084085
:102440000028F2D1082120680840082831D1206AEC
:10245000002817D07248406A012108437049486239
:10246000FEF77CFA054606E0FEF778FA401B642882
:1024700001D90320F4E66A48406A02210840002896
:10248000F2D016E06648406A40084000644948625D
:10249000FEF764FA054606E0FEF760FA401B642882
:1024A00001D90320DCE65E48406A0221084000288A
:1024B000F2D1042120680840042870D100BF584898
:1024C000C069890608435649C8610846C0690904BD
:1024D0000840009000BF00BF52480068091508433B
:1024E00050490860FEF73AFA054606E0FEF736FA6C
:1024F000401B642801D90320B2E64A480068FF2146
:10250000013108400028F1D000BF4548006A40086A
:102510004000434908620846006A04218843404954
:10252000086200BFFEF71AFA054607E0FEF716FA42
:10253000401B3D49884201D9032091E63848006A92
:10254000022108400028F1D100BFA068012806D16F
:102550003348006A01210843314908622CE0A06831
:1025600000280CD12E48006A400840002C4908621F
:102570000846006A04218843294908621CE0A068D3
:1025800005280DD12648006A042108432449086221
:102590000846006A01210843214908620CE034E042
:1025A0001F48006A400840001D4908620846006A4A
:1025B000042188431A49086200BFA068002812D08D
:1025C000FEF7CCF9054607E0FEF7C8F9401B1649AF
:1025D000884201D9032043E61148006A02210840DD
:1025E0000028F1D011E0FEF7B9F9054607E0FEF743
:1025F000B5F9401B0C49884201D9032030E6084850
:10260000006A022108400028F1D11021206808400A
:10261000102860D1606901282DD10148406B05E088
:10262000001002400070004088130000042108439D
:102630008E4948630846406B012108438B49486333
:10264000FEF78CF9054606E0FEF788F9401B642882
:1026500001D9032004E68548406B02210840002888
:10266000F2D08248406BF8218843A169C900084331
:102670007E4948632FE06069401D00280FD17B48E8
:10268000406B04218843794948630846406BF82130
:102690008843A169C9000843744948631BE0734833
:1026A000406B04210843714948630846406B400869
:1026B00040004863FEF752F9054606E0FEF74EF982
:1026C000401B642801D90320CAE56848406B0221F9
:1026D00008400028F2D1202120680840202852D14B
:1026E000624840680C2108400C280AD05F484068C6
:1026F0000840082811D15D484068490308408842D5
:102700000BD15A48406B01210904084000283AD0F7
:10271000E069012837D00120A2E5E069002819D03E
:102720005248406B01210904084350494863FEF7B1
:1027300015F9054606E0FEF711F9401B642801D99A
:1027400003208DE54948406B012109040840002819
:10275000F1D018E04548406B012109048843434902
:102760004863FEF7FBF8054606E0FEF7F7F8401B66
:10277000642801D9032073E53C48406B012109041A
:1027800008400028F1D1606A00286CD037484068C2
:102790000C210840082864D0606A022847D13348D9
:1027A000006801210906884330490860FEF7D6F821
:1027B000054606E0FEF7D2F8401B642801D9032045
:1027C0004EE52A4800680121490608400028F1D159
:1027D00000BF2648C06A00090001216B0843234955
:1027E000C862A16AE06A0843204949687B22D20393
:1027F000914308431D49486000BF08460068012115
:102800000906084319490860FEF7A8F8054606E0DE
:10281000FEF7A4F8401B642801D9032020E51348E3
:1028200000680121490608400028F1D01BE00F484C
:1028300000680121090688430C490860FEF78EF8FC
:10284000054606E0FEF78AF8401B642801D90320FC
:1028500006E5064800680121490608400028F1D134
:1028600001E00120FCE40020FAE400000010024036
:102870007047000070B50446002C01D1012070BDE6
:102880005D20005D002805D100215C200155204617
:1028900000F068F802215D200155206800684021A1
:1028A00088432168086007210902E068884201D94D
:1028B000002501E001252D030F210902E06888426F
:1028C00006D007210902E068884201D00021A162F8
:1028D000206B002809D107210902E068884202D94B
:1028E0000221216301E001212163A168606808439E
:1028F000216908436169084301225202A16911401C
:102900000843E1690843216A0843A16A0843216832
:102910000860206B022805D12068006891000843F8
:1029200021680860A069000C04210840616A08431E
:10293000616B0843E16808432843216848602168C7
:10294000E06A08612068C069054908402168C861DB
:102950000020206601215D20015500208FE7000046
:10296000FFF7000010B586B004461649206888427B
:1029700025D100BF1448C069091408431249C86131
:102980000846C069012189030840009000BF00BFCC
:102990000F200003019002200290002003900320EA
:1029A00004900020059001A90848FDF7C5FE00220B
:1029B00011461A20FEF726F91A20FEF717F906B07D
:1029C00010BD000000380040001002400004004824
:1029D00030B50346002400BF5C20C05C012801D153
:1029E000022030BD01255C20C55400BF002901D064
:1029F000002A01D1012450E05D20C05C012801D0F3
:102A000002244AE003255D20C5540020186699631E
:102A10009A87DA87186400254420C5524620C5529B
:102A20000020D86407252D02D868A84202D91E4884
:102A3000186501E01D4818650125ED039868A84256
:102A400005D1186800686D1028431D6828600125AD
:102A50006D03986AA8420ED100BF18680068144D33
:102A600028401D6828601868006801256D03284308
:102A70001D68286000BF18684068802528431D68CD
:102A800068601868006840252840402804D018680D
:102A9000006828431D68286000BF00BF00255C2037
:102AA000C55400BF20469CE7613A00089D3A0008E3
:102AB000FFDF000070470000042806D106490969BD
:102AC00004221143044A116105E003490969042203
:102AD0009143014A1161704700E000E07047000037
:102AE00070B504462546681E0949884201D901206F
:102AF0000CE0681E074948610321081F00F0CEFC66
:102B000000200449886107200861002070BD000092
:102B1000FFFFFF0000E000E010B5FFF7DFFF10BD92
:102B200070477047024600BF3820805C012801D101
:102B30000220704701233820835400BF022339202C
:102B400083544B68086818438B681843CB68184354
:102B50000B6918434B6918438B6918431368586411
:102B600001233920835400BF00233820835400BF41
:102B70000020DEE7024600BF3820805C012801D13A
:102B80000220704701233820835400BF02233920DC
:102B90008354106840687023984313685860106825
:102BA00040680B6818431368586010688068802379
:102BB000984313689860106880684B6818431368DE
:102BC000986001233920835400BF002338208354A8
:102BD00000BF0020D5E710B50446002C01D101202C
:102BE00010BD3920005D002805D100213820015595
:102BF000204600F00DF8022139200155211D2068E2
:102C000001F0F0F80121392001550020E8E700002B
:102C100038B504460D492068884215D100BF0C48DC
:102C2000C069202108430A49C8610846C0692021BB
:102C30000840009000BF00BF002211461220FDF79F
:102C4000E1FF1220FDF7D2FF38BD00000014004064
:102C50000010024001460868C068012210430A685B
:102C6000D06008680068012210430A6810600020E4
:102C70007047000001460868C068400840000A68C4
:102C8000D06000BF0868006A094A104000280BD1D4
:102C90000868006A92101040002805D10868006892
:102CA000400840000A68106000BF00207047000024
:102CB00011110000704710B5044620680069022118
:102CC0000840400800281CD02068C0680840400820
:102CD000002816D0481F216808610120207620684E
:102CE00080698007800F002803D02046FFF7E2FFAD
:102CF00005E0204600F0C3F8204600F0EBF9002084
:102D000020762068006904210840800800281DD032
:102D10002068C06808408008002817D0C843216890
:102D2000086102202076206880690321090208409A
:102D3000002803D02046FFF7BDFF05E0204600F045
:102D40009EF8204600F0C6F9002020762068006931
:102D500008210840C00800281CD02068C06808402E
:102D6000C008002816D0C8432168086104202076D6
:102D70002068C0698007800F002803D02046FFF735
:102D800099FF05E0204600F07AF8204600F0A2F90D
:102D900000202076206800691021084000090028E2
:102DA0001DD02068C06808400009002817D0C8431B
:102DB00021680861082020762068C0690321090283
:102DC0000840002803D02046FFF774FF05E02046A6
:102DD00000F055F8204600F07DF9002020762068AC
:102DE0000069C007C00F01214840484000280CD0AE
:102DF0002068C068084048404840002805D0C81EE8
:102E000021680861204600F09BF920680069802154
:102E10000840C00900280BD02068C0680840C009DD
:102E2000002805D0C843216808612046FFF778FED6
:102E30002068006940210840800900280BD02068E4
:102E4000C06808408009002805D0C843216808618F
:102E5000204600F076F920680069202108404009EA
:102E600000280BD02068C06808404009002805D021
:102E7000C843216808612046FFF753FE10BD704724
:102E800070B504460D46164600BF3820005D012887
:102E900001D1022070BD01213820015500BF02215F
:102EA00039200155002E06D0042E1BD0082E33D019
:102EB0000C2E62D147E02946206800F0F3FF20681D
:102EC000806908210843216888612068806904219D
:102ED00088432168886120688069296908432168DE
:102EE00088614BE02946206801F036F82068806947
:102EF0000121C90208432168886120688069012195
:102F000089028843216888612068806929690902EB
:102F100008432168886131E02946206801F080F883
:102F20002068C069082108432168C8612068C06919
:102F3000042188432168C8612068C0692969084361
:102F40002168C8611AE02946206801F0CBF82068A2
:102F5000C0690121C90208432168C8612068C069AD
:102F60000121890288432168C8612068C0692969F4
:102F7000090208432168C86100E000BF00BF0121C9
:102F80003920015500BF00213820015500BF002025
:102F900080E710B50446002C01D1012010BD392076
:102FA000005D002805D1002138200155204600F0A1
:102FB0000DF8022139200155211D206800F012FF73
:102FC0000121392001550020E8E7000010B586B046
:102FD000044632492068884223D100BF30488069C6
:102FE000C91408432E49886108468069C9140840FD
:102FF000009000BF00BFC810019012200290002076
:10300000039004900220059001A90920C006FDF755
:1030100093FB2448046000202249886022484860CD
:103020003AE022492068884236D100BF1C48C06976
:10303000022108431A49C8610846C06902210840B4
:10304000009000BF00BF0F2080010190122002906D
:10305000002003900490059001A91548FDF76CFB32
:1030600014480460002013498860134848601348DE
:1030700004600420114988601148486011480460C8
:1030800008201049886010484860104804600C20EF
:103090000E4988600E48486006B010BD002C014003
:1030A00000100240182C00203415002000040040BD
:1030B000000800483C2C002050150020602C002007
:1030C0006C150020842C002088150020A82C0020DE
:1030D000A41500207047000030B504460D460122BB
:1030E0002946206800F0D0FE1149206888420BD0A4
:1030F00010492068884207D00F492068884203D0D1
:103100000E492068884201D1012000E000200028FB
:1031100006D02068406C0121C90308432168486437
:10312000206800680121084321680860002030BD44
:10313000002C014000400140004401400048014093
:103140007047704710B50446002C01D1012010BD16
:10315000A069002800D000E000BF6920005D0028C1
:1031600005D1002168200155204600F02DF80221EC
:103170006920015520680068400840002168086007
:10318000204601F0C5F8012800D1E0E7606A002878
:1031900002D0204600F0EAFF206840680921C902F9
:1031A000884321684860206880682A218843216814
:1031B0008860206800680121084321680860204673
:1031C00001F04CF8C3E7000010B586B0044648494A
:1031D0002068884226D100BF4648806901218903C2
:1031E00008434449886108468069012189030840F1
:1031F000009000BF00BFC02001900220029001207B
:103200000390032004900020059001A93A48FDF79F
:1032100093FA002201211B20FDF7F4FC1B20FDF78F
:10322000E5FC62E035492068884234D100BF31486E
:10323000C0690121490408432E49C8610846C06994
:10324000012149040840009000BF00BF60200190A8
:10325000022002900120039003200490002005909A
:1032600001A92748FDF768FA182001900220029072
:1032700000200390032004900020059001A920481D
:10328000FDF75AFA002211461C20FDF7BBFC1C205A
:10329000FDF7ACFC29E01B492068884225D100BF1E
:1032A0001448C0690121890408431249C8610846CD
:1032B000C069012189040840009000BF00BF302090
:1032C000019002200290012003900320049000202E
:1032D000059001A90C48FDF72FFA002211461D2088
:1032E000FDF790FC1D20FDF781FC06B010BD00002D
:1032F0000038014000100240000400480044004033
:10330000000C00480048004000080048FFB581B0AC
:1033100004460D4616466920005D012803D0692049
:10332000005D222867D1002D01D0002E02D101209E
:1033300005B0F0BD00BF6820005D012801D102206A
:10334000F6E701216820015500BF0020E0666920F2
:10335000005D222803D132216920015502E01221AB
:1033600069200155502006535220065323E0522075
:10337000005B401E81B25220015300228021204672
:10338000049B01F008F9002801D00320D0E70121B7
:103390000903A06888420AD12069002807D12F4676
:1033A0003888C005C00D21680885AD1C03E0287869
:1033B0006D1C216808855220005B0028D7DC0022A4
:1033C00040212046049B01F0E6F8002801D00320AC
:1033D000AEE76920005D322803D122216920015522
:1033E00002E001216920015500BF0021682001553C
:1033F00000BF00209CE702209AE7704700B5014615
:1034000008463038030002F0DBF9172C0D0F1113BA
:103410001517191B1D2B2B2B2B2B2B2B1F2123257A
:1034200027292B00012000BD0220FCE70320FAE73A
:103430000420F8E70520F6E70620F4E70720F2E786
:103440000820F0E70920EEE70A20ECE70B20EAE786
:103450000C20E8E70D20E6E70E20E4E70F20E2E786
:1034600000BF0020DFE7000010B500220749084830
:1034700001F03CFD0749064801F094FF0649044865
:1034800001F03CFA024802F06AF810BD1801002071
:10349000D41600200C0000207001002010B5002878
:1034A00019DA1A4A03071B0F083B9B089B00D258E6
:1034B0008307DC0EFF23A3409A438B071B0E840770
:1034C000E40EA3401A43114B0407240F083CA40840
:1034D000A4001A5118E00E4A03231B02D2188308D5
:1034E0009B00D2588307DC0EFF23A3409A438B072F
:1034F0001B0E8407E40EA3401A43054B0324240249
:103500001B198408A4001A5110BD00001CED00E036
:1035100000E100E0FEB5054600270020019011E221
:10352000684600890607360F002E7DD1684600895F
:1035300010210840002830D128680088FB49084045
:10354000296808802C46283428684030008A217871
:10355000C9004018801C0122920229688918405A2B
:103560008005800DA061A1692069401820610021BB
:103570002846FDF772FB2420405D0028CFDD6069FE
:103580000028CCD12420405D8021084329684031A7
:103590008881002124204155D4E12C46FF34093490
:1035A000286801880191684680880121C902084085
:1035B000002823D028684030008A2178C9004018AC
:1035C000801D0122920229688918405A8005800DC9
:1035D000A061218B8BB2A2882146E431286800F0DB
:1035E000BCF9286800884004400CD049803108406C
:1035F000296808802846FEF71EFBA3E168468088FC
:103600000121C9030840002889D0286800884004A7
:10361000400CC6498031084029680880286840303D
:10362000008A2178C90000E056E04018801D012280
:10363000920229688918405A8005800DA061A0690E
:1036400000280BD0218B8BB2A288216900912868B9
:1036500000F083F9A1692069401820610021284603
:10366000FDF70BFB28684030008A801D01239B0278
:103670002A68D2188118E2683E2A0FD9E268D2027D
:10368000100C227BD206D20E002A01D1421E90B22B
:1036900082020123DB031A430A800CE0E268D203B2
:1036A000100C227BD207D20F002A01D0421C90B20C
:1036B0008206120C0A80296809889D4A1140084632
:1036C0000121090348404900484089000143802204
:1036D00011432A68118035E1B1002868415A0191EF
:1036E000684680880121C903084000287DD0B100C8
:1036F0002868405A4004400C8C4980310840B20090
:10370000296888521C2070432946FF31093144182A
:10371000A07A002816D128684030008A2178C90094
:103720004018801D0122920229688918405A870595
:10373000BF0D002F49D0A28821693B46286800F0C0
:103740000CF942E0217889002868405A0121890358
:103750000840002816D028684030008A2178C90027
:103760004018801C0122920229688918405A870556
:10377000BF0D002F1CD0E28821693B46286800F06D
:10378000ECF815E028684030008A2178C90040181C
:10379000801D0122920229688918405A8705BF0DB1
:1037A000002F05D0228921693B46286800F0D5F812
:1037B000217889002868405A5C49803108405D4979
:1037C00008432278920029688852A069C019A06134
:1037D0002069C01920616069002802D0E068B84201
:1037E00004D921782846FDF748FA05E021782846D3
:1037F00063692269FDF744FE68468088802108409D
:1038000000287DD01C207043294628314418B1007F
:103810002868405A45490840B20029688852A07A71
:1038200000281AD128684030008A2178C900401841
:10383000801C0122920229688918405A8005800D57
:10384000A061A069002853D0208B83B2A28821698F
:103850002868009000F094F84AE0217889002868F0
:10386000405A4021084000281AD028684030008A79
:103870002178C9004018801C012292022968891809
:10388000405A8005800DA061A069002822D0208BBD
:1038900083B2E28821692868009000F071F819E08D
:1038A00028684030008A2178C9004018801D012214
:1038B000920229688918405A8005800DA061A0698C
:1038C000002807D0208B83B22289216928680090C4
:1038D00000F056F8217889002868405A1349803151
:1038E00008401349F1310843227892002968885230
:1038F00028684030008A2178C9004018801C00E008
:1039000020E00122920229688918405A8005800D22
:10391000A061A169206940182061606900280BD16D
:1039200021782846FDF799F90CE000000F8F000080
:103930008FBF0000C080000021782846636922699B
:10394000FDF7C8FE28684030808802900121C90335
:103950000840002800D0E3E5FEBDF8B55E1C7610F7
:10396000009616180127BF02F519009C05E02E8865
:103970000E80AD1C491C491C641E002CF7D1F8BDFB
:10398000FFB581B0049E761C76100096039E361813
:103990000127BF02F419009A08E00B78491C0E7841
:1039A00035021D432580A41C491C521E002AF4D157
:1039B00005B0F0BD10B5024802F0A7FC10BD000034
:1039C0000824002038B5044620684068A0218843B8
:1039D000216848603221204600F020F8002803D0FA
:1039E0002021206E08432066A068002808D100BF6F
:1039F0002068C068009020688068009000BF00BF09
:103A000001215D200155206E002803D02046FEF7DD
:103A10002FFF02E02046FFF74DF838BD70B5044691
:103A20000D462B4600220321C902204600F054F81F
:103A3000002805D02021206E08432066032070BD99
:103A40002B4600228021204600F0A6F8002805D051
:103A50002021206E084320660320F0E70020EEE7D7
:103A600010B50446A06B00882168C860A06B801C5C
:103A7000A063E08F401EE087E08F00280DD1012178
:103A80004903A06A884205D12068006849100843AC
:103A9000216808602046FFF795FF10BD10B5044669
:103AA000A16B481CA063087821680873E08F401E52
:103AB000E087E08F00280DD101214903A06A8842E8
:103AC00005D1206800684910084321680860204635
:103AD000FFF778FF10BD0000FEB504460E461746FE
:103AE0001D46FCF73BFF00904DE00320400286425C
:103AF00006D1002F04D12068017B0191684600792E
:103B0000681C00283FD0002D05D0FCF727FF009946
:103B1000401AA84237D320684068E02188432168D2
:103B20004860FF210531606888420ED10121C90338
:103B3000A068884203D04911A068884205D1206856
:103B40000068402188432168086001214903A06A78
:103B500088420ED100BF206800680E4908402168E5
:103B60000860206800680121490308432168086053
:103B700000BF01215D20015500BF00215C200155DF
:103B800000BF0320FEBD206880683040B842ACD141
:103B90000020F7E7FFDF0000F8B504460E461746A1
:103BA0001D46FCF7DBFE009042E0681C00283FD079
:103BB000002D05D0FCF7D2FE0099401AA84237D359
:103BC00020684068E021884321684860FF21053172
:103BD000606888420ED10121C903A068884203D0E1
:103BE0004911A068884205D12068006840218843B7
:103BF0002168086001214903A06A88420ED100BFF4
:103C0000206800680E490840216808602068006844
:103C10000121490308432168086000BF01215D209C
:103C2000015500BF00215C20015500BF0320F8BDF5
:103C3000206880683040B842B7D10020F7E7000024
:103C4000FFDF000010B5FCF78DFFFEF765FF10BD2C
:103C500010B500F001F810BD30B599B030200C90CF
:103C600001201390119010201290002015900CA8A4
:103C7000FEF7D0FA012008900320099000200A9056
:103C80000B90012108A8FEF7BFF810480190002012
:103C900003900490102005900020079001A8FDF7E4
:103CA000F5FFFEF717FA05467D21C900FCF720FA5B
:103CB0000446FEF715FF0420FEF7FEFE0022114623
:103CC000501EFCF79FFF19B030BD0000230002001A
:103CD00019480068012108431749086008464068F0
:103CE00016490840144948600846006814490840CD
:103CF00011490860084600680121890488430E497B
:103D00000860084640683F21090488430A49486022
:103D10000846C06A00090001C8620846006B0949EC
:103D20000840054908630846406B40084000486366
:103D30000020886070470000001002400CB8FF08A7
:103D4000FFFFF6FE2CFEFCFF10B50122102109201A
:103D5000C006FCF7FCFD19480068002804D017488D
:103D60000068401E1549086015480068002804D006
:103D700013480068401E12490860124802F02EFAEB
:103D8000114802F02BFA114802F028FA104802F00C
:103D900025FA104801F041FF0F48FEF78CFF04217F
:103DA0000E48FCF7D0FD0E4802F0F2FC0022102174
:103DB0000920C006FCF7CBFD10BD00009C160020BA
:103DC000A0160020842C0020602C00203C2C002019
:103DD000182C0020402E0020F02E0020000C00485F
:103DE0001C2E002010B500220268214B984206D0FC
:103DF00001239B07984202D01E4B984205D17024A4
:103E00001346A3431A464B681A43194B984212D0E3
:103E100001239B0798420ED0164B98420BD0164BAD
:103E2000984208D0154B984205D0154B984202D0C5
:103E3000144B984206D1032424021346A3431A4686
:103E4000CB681A4302608B68C3620B688362084BBD
:103E5000984208D0094B984205D0094B984202D0AD
:103E6000084B984201D10B6903630123436110BDE4
:103E7000002C0140000400400020004000400140B0
:103E8000004401400048014030B5002301248C402B
:103E90002346046A9C430462046A15468D402C4301
:103EA000046230BD70B5002400220023056A6D084D
:103EB0006D000562026A4368846970262546B54331
:103EC0002C46A408A4000D682C4302261546B543D1
:103ED0002A468D682A431C4DA84200D10BE01B4D99
:103EE000A84200D107E01A4DA84200D103E0194DC5
:103EF000A8420AD100BF08261546B5432A46CD6818
:103F00002A4304261546B5432A460F4DA84208D039
:103F10000E4DA84205D00E4DA84202D00D4DA8422C
:103F20000CD1FF2601361D46B5432B4676001D46B3
:103F3000B5432B464D692B438D692B434360846108
:103F40004D684563026270BD002C01400040014095
:103F5000004401400048014070B5002400220023C5
:103F6000056A1026B5430562026A4368846907261C
:103F700036032546B5432C46032636022546B5436F
:103F80002C460D682D022C4320261546B5432A46A3
:103F90008D682D012A431E4DA84200D10BE01D4D16
:103FA000A84200D100BF1C4DA84200D100BF1B4D4C
:103FB000A8420BD10AE080261546B5432A46CD68B3
:103FC0002D012A4340261546B5432A46104DA842E6
:103FD00008D0104DA84205D00F4DA84202D00F4D79
:103FE000A8420ED10126B6021D46B5432B467600E7
:103FF0001D46B5432B464D69AD002B438D69AD0081
:104000002B43436084614D688563026270BD00008C
:10401000002C0140004001400044014000480140A4
:1040200070B5002400220023056AFF260136B5433F
:104030000562026A4368C46970262546B5432C466A
:10404000A408A4000D682C43012676021546B5434A
:104050002A468D682D022A431E4DA84200D10BE04E
:104060001D4DA84200D100BF1C4DA84200D100BF89
:104070001B4DA8420CD10BE00126F6021546B543B4
:104080002A46CD682D022A4376101546B5432A46A6
:10409000104DA84208D0104DA84205D00F4DA8429F
:1040A00002D00F4DA8420ED1012636031D46B5435E
:1040B0002B4676001D46B5432B464D692D012B43FB
:1040C0008D692D012B434360C4614D68C563026255
:1040D00070BD0000002C0140004001400044014040
:1040E0000048014070B5002200230024056A012623
:1040F0003603B5430562036A4468C269072636037E
:104100001546B5432A46032636021546B5432A46C8
:104110000D682D022A43012676031D46B5432B4622
:104120008D682D032B430D4DA84208D00C4DA8429D
:1041300005D00C4DA84202D00B4DA84207D1012654
:10414000B6032546B5432C464D69AD012C4344606A
:10415000C2614D680564036270BD0000002C01401F
:10416000004001400044014000480140818CC907E3
:10417000C90F002908D001684968012252049143FF
:10418000826A1143026851600222416A114000298B
:1041900007D001684968D2039143C26A114302689B
:1041A00051600422416A1140002907D00168496822
:1041B00012049143026B1143026851600822416A64
:1041C0001140002907D00168496812039143426BEE
:1041D0001143026851601022416A1140002907D042
:1041E0000168896812029143826B114302689160F1
:1041F0002022416A1140002907D001688968120213
:104200009143C26B1143026891604022416A1140A0
:10421000002915D00168496892039143026C11434B
:104220000268516001221205016C914208D10168B7
:104230004968032252059143426C11430268516060
:104240008022416A1140002907D0016849681203A1
:104250009143826C114302685160704710B5044667
:104260000020E06619492068884203D01849206878
:10427000884221D1206800680821084008280AD116
:104280007D23DB0000228104204600F084F9002811
:1042900001D0032010BD20680068042108400428D4
:1042A0000AD17D23DB0000220105204600F073F9CE
:1042B000002801D00320EDE701216920015500BF4E
:1042C00000216820015500BF0020E3E700380140CD
:1042D0000044004010B5044620680068402188432F
:1042E000216808606920005D322803D122216920FD
:1042F000015508E020688068400840002168886017
:104300000121692001552046FFF777F8002010BDF4
:10431000FEB50446002510260027002002900190DB
:104320002169A068084361690843E16908430546BB
:1043300020680068704908402843216808602068A8
:104340004068032109038843E16808432168486005
:10435000216AA06908430546206880680B2109028C
:10436000884328432168886000BF644920688842E8
:1043700017D16348006B8007800F002806D0012802
:1043800008D0022808D0032808D101E0002607E061
:10439000022605E0042603E0082601E0102600BFFF
:1043A0002BE05849206888421AD15548006B0321F8
:1043B00009040840002808D001210904401A08D047
:1043C000401A08D0401A08D101E0002607E0022672
:1043D00005E0042603E0082601E0102600BF0CE0FB
:1043E00049492068884201D1002606E047492068F3
:1043F000884201D1002600E0102600BF0121C90338
:10440000E06988423FD1042E1BD004DC002E07D087
:10441000022E28D10EE0082E1DD0102E23D123E02D
:10442000FDF76EFE400000906168FBF761FE80B210
:1044300002901CE036486168FBF75AFE80B2029099
:1044400015E0FDF76FFE400000906168FBF750FE3D
:1044500080B202900BE0012000046168FBF748FE87
:1044600080B2029003E000BF0120019000BF00BFB6
:10447000284902980840074602980007400F074362
:104480002068C76035E0042E1CD004DC002E07D065
:10449000022E29D10EE0082E1ED0102E24D124E0A9
:1044A000FDF72EFE00906168FBF722FE80B22168C6
:1044B000C8601DE018486168FBF71AFE80B22168E9
:1044C000C86015E0FDF72EFE00906168FBF710FE56
:1044D00080B22168C8600BE00120C0036168FBF76F
:1044E00007FE2168C86003E000BF0120019000BF03
:1044F00000BF0198FEBD0000F369FFEF00380140E6
:10450000001002400044004000480040004C0040C1
:104510000024F400F0FF000000127A000146692038
:10452000405C122803D06920405C322831D15220EF
:10453000405A00280DD108680068802398430B6812
:10454000186008680068402318430B681860002052
:10455000704701231B03886898420CD10869002822
:1045600009D1CA6C1088C005C00D0B681885C86CCD
:10457000801CC86405E0CB6C581CC86418780B68B4
:1045800018855220405A401E83B2522043520020C8
:10459000DEE70220DCE7FFB581B004460E461D468B
:1045A000FCF7DCF907460398002839D12DE0681C98
:1045B00000282AD0002D04D0FCF7D0F9C01BA84257
:1045C00023D920680068802188432168086020681A
:1045D0000068202188432168086020680068FF2166
:1045E00001318843216808602068806840084000E5
:1045F0002168886001216920015500BF00216820E1
:10460000015500BF032005B0F0BD2068C0693040EF
:10461000B04201D1012000E000200028C7D037E0DF
:104620002CE0681C002829D0002D04D0FCF796F956
:10463000C01BA84222D920680068802188432168D5
:10464000086020680068202188432168086020688D
:104650000068FF2101318843216808602068806874
:10466000400840002168886001216920015500BF91
:1046700000216820015500BF0320C4E72068C069FD
:104680003040B04201D1012000E000200028C8D114
:104690000020B8E710B50548FEF7ECFA044801F031
:1046A000B1FF0248FEF7D6FA10BD0000F02E002040
:1046B0001C2E002010B50648FEF7DCFA054801F074
:1046C00075FD054801F09EFF0148FEF7C3FA10BDD5
:1046D000F02E0020602C0020282E0020704710B5FE
:1046E00002460B464320C00081588058002805D060
:1046F0000024852080004450002010BD0220FCE7EB
:1047000070B504460E464320C00005593146204688
:1047100000F0E4FC8321890048514320C000005987
:1047200000280CD081218900485987218900095926
:10473000CA688321890069189047002070BD022053
:10474000FCE770B504460E4600258121204600F0A6
:10475000F8FB0121204600F0F4FB8221204600F006
:10476000F0FB4320C000005900280DD087218900AC
:104770000959486880474321C900085901F00DF8DC
:1047800000214320C0000151284670BD70B5054688
:104790004320C0004459001D4059002812D0012078
:1047A0004002005DFF280DD007490A5D491E085DE3
:1047B0008721890049598B6821469847FF210120AC
:1047C00040020155002070BD0102000001460A2090
:1047D0000880014870470000000000200146432087
:1047E00008800148704700008800002001464320EF
:1047F0000880014870470000440000200146432023
:104800000880014870470000CC000020F8B504463D
:104810000F460026207C00280ED101235B020222D5
:104820008121204600F0CAFC01235B020222012103
:10483000204600F0C3FC0BE04023022281212046E9
:1048400000F0BCFC402302220121204600F0B6FC0F
:10485000082303228221204600F0B0FC872080003C
:1048600000F09CFF4321C900085108460059002868
:1048700001D1012620E04320C0000559011D09593E
:10488000086880470021852080004151001D41516A
:10489000207C002808D1812080004259031F01217B
:1048A000204600F09AFC07E0812080004259402316
:1048B0000121204600F091FC3046F8BD70B5044659
:1048C0004320C00005590059002815D0207C00283D
:1048D00008D1812080004259031F0121204600F0A9
:1048E0007CFC07E0812080004259402301212046C2
:1048F00000F073FC002070BD0220FCE7024602209D
:10490000002903D087239B0099500020704702465E
:104910004320C000835881208000C1500020704790
:1049200010B503464320C000C4584120C0000151C7
:10493000212000010251002010BD000070B5054685
:104940000C464320C00046592078602108400028CA
:104950002DD020283AD1E08800281FD0207880214F
:10496000084000280DD0E2886078872189004959E5
:104970008B6831469847E2883146284600F0C5F8F2
:1049800014E06178012040028155A179401C8155D5
:10499000E2883146284600F095F807E060788721E4
:1049A0008900495900228B68214698470FE06078BA
:1049B0000A2802D00B2807D105E001220549284624
:1049C00000F0A3F800E000BF00BF00BF00BF00BFC1
:1049D000002070BD0F01002070B505464320C000C7
:1049E00044594059002816D08520800000590028DD
:1049F0000FD10121852080000151001F005B83B28F
:104A00004120C00002598121284600F0A8FC002066
:104A100070BD0120FCE70220FAE770B504460D46A0
:104A20008520800000592946426820469047002092
:104A300070BD70B504460D46FF20FD30005D0228B4
:104A400002D0032813D100E000BF688801280DD1EF
:104A500000218120800001518520800000592946D5
:104A6000826820469047204600F061F804E029461D
:104A7000204600F01BF800BF00BF70BD70B50646B1
:104A80000C4615462B4622460021304600F0A5FB79
:104A9000002070BD70B506460C4615462B462246D2
:104AA0000021304600F05BFC002070BD70B504466C
:104AB0000D468021204600F033FC0021204600F006
:104AC0002FFC70BD70B504460E4615460321FF202D
:104AD000F5300151FF2009300551001D05512B46CD
:104AE00032460021204600F078FB002070BD10B552
:104AF00004460521FF20F530015100231A461946CE
:104B0000204600F06AFB002010BD70B504460E463A
:104B100015460221FF20F5300151A561E5612B46C4
:104B200032460021204600F01AFC002070BD10B56E
:104B300004460421FF20F530015100231A4619468E
:104B4000204600F00CFC002010BD000070B50546AA
:104B50000C46002D05D12246054906A000F09FF91C
:104B600004E02246024903A000F099F9004870BD14
:104B7000F818002043444320436F6E6669670000C5
:104B800002461220088001487047000034010020CE
:104B900070B505460C46002D05D12246054906A0F4
:104BA00000F07DF904E02246024903A000F077F905
:104BB000004870BDF818002043444320496E7465D6
:104BC00072666163650000000246042008800148A7
:104BD000704700004801002070B505460C4622468B
:104BE000024903A000F05BF9004870BDF8180020EE
:104BF00053544D4D6963726F656C656374726F6E6B
:104C00006963730070B505460C46002D05D1224638
:104C1000054906A000F043F904E02246024903A03A
:104C200000F03DF9004870BDF818002053544D695C
:104C300063726F656C656374726F6E69637320561F
:104C400069727475616C20434F4D20506F7274000F
:104C500070B505460C46002D05D12246054906A033
:104C600000F01DF904E02246024903A000F017F904
:104C7000004870BDF818002030303030303030300F
:104C8000303031410000000070B504460D46E88820
:104C9000012804D029462046FFF708FF1CE0FF202A
:104CA000FD30005D022802D003280FD108E000206B
:104CB000A0600122214608312046FFF726FF0AE0C6
:104CC0000122211D2046FFF720FF04E0294620464F
:104CD000FFF7ECFE00BF00BF70BDF8B504460E46FE
:104CE00070880012030000F06BFD088C050E258C07
:104CF0008C6A7A8C207C2121090109590A6869464D
:104D00009047054682E0207C002809D1852080005C
:104D10000059816A6846884705460221697008E0A3
:104D2000852080000059C16A6846884705460221EF
:104D300069706BE0B078030000F042FD06040D16C8
:104D40001F28313A207C2121090109594A68694606
:104D50009047054631E0207C2121090109598A68E4
:104D600069469047054628E0207C21210901095920
:104D7000CA686946904705461FE0207C2121090149
:104D800009590A6969469047054616E0207C2121A9
:104D9000090109594A696946904705460DE0207C9A
:104DA0002121090109598A6969469047054604E0AD
:104DB00031462046FFF77AFEF8BD00BF26E0207C92
:104DC000002807D1852080000059416B684688473C
:104DD00005461BE031462046FFF768FEECE7207CE5
:104DE000002809D1852080000059016B684688475A
:104DF00005460721697009E031462046FFF756FE57
:104E0000DAE731462046FFF751FED5E700BF684696
:104E10000088002812D0F08800280FD0F08869465A
:104E20000988884202DD6846008800E0F08800902A
:104E300069460A8829462046FFF767FE00BFBBE7A0
:104E40000146002002E0421CD0B2491C0A78002A28
:104E5000F9D1704770B504460D46FF20FD30005D66
:104E6000022802D0032813D100E000BF0120E06037
:104E7000812080000059002803D00221E068084307
:104E8000E060022221460C312046FFF73EFE04E09E
:104E900029462046FFF70AFE00BF00BF70BDF8B5E7
:104EA00004460D4617460026002C1ED02046FFF76C
:104EB000C7FF4000801C38803A783046711CCEB263
:104EC0002A5403223046711CCEB22A540AE02278BA
:104ED0003046711CCEB22A54641C00223046711C2C
:104EE000CEB22A5420780028F1D1F8BD70B504461E
:104EF0000D461646002C01D1022070BD8520800091
:104F00000059002803D00021852080000151002D88
:104F100002D02120000105510121FF20FD30015563
:104F20002670204600F0E4F80020E6E770B504465D
:104F30000D461121490108592946FBF7EFFF0020D2
:104F400070BD70B504460D46112149010859294626
:104F5000FBF7A4FE002070BDF8B504460E461746C8
:104F6000002E5CD125461435FF20F530005902286B
:104F700048D1E968A868884210D9E968A868401A49
:104F8000A860288982B239462046FFF783FD0023B6
:104F90001A461946204600F020F933E0E9686868AF
:104FA000FBF7A6F8002919D1E9686868884215D38B
:104FB000FF20F9300059696881420FD20022114662
:104FC0002046FFF767FD0021FF20F9300151002343
:104FD0001A461946204600F000F913E085208000AB
:104FE0000059C06800280AD0FF20FD30005D03286A
:104FF00005D1852080000059C16820468847204699
:10500000FFF775FD01204002005D012819D12046FF
:1050100000F0D2F9002101204002015511E0852065
:1050200080000059406900280BD0FF20FD30005D52
:10503000032806D185208000005931464269204668
:1050400090470020F8BDF8B505460E461746002EDD
:1050500030D1EC1DFD34FF20F530405903283BD101
:10506000E168A068884210D9E168A068401AA06091
:10507000E168A068884201D2A06800E0E06882B2DE
:1050800039462846FFF7FAFC26E085208000405983
:10509000006900280AD0FF20FD30405D032805D1BB
:1050A0008520800040590169284688472846FFF737
:1050B0003EFD11E0852080004059806900280BD01A
:1050C000FF20FD30405D032806D185208000405937
:1050D00031468269284690470020F8BD70B50446E5
:1050E0000D461121490108592946FBF7A7FF70BD5C
:1050F00010B504462048C4612049112040010151E7
:105100001F4808600520486002211C488160032177
:10511000C16002210161002181610162FCF79CFCF8
:10512000112149010859182300221146FBF773FD8C
:10513000112149010859582300228021FBF76BFDFA
:10514000112149010859C02300228121FBF763FD89
:105150001121490108594B1000220121FBF75BFD89
:10516000112149010859FF23013300228221FBF755
:1051700052FD002010BD0000F81C0020F81A00208D
:10518000005C004010B50246112040018358802089
:105190000840802808D14806400E1C2460431C4665
:1051A00028340019807810BD4806400E1C24604346
:1051B0001C46FF34093400198078F4E7F8B504463A
:1051C0000F4615461E461121490108592B46324605
:1051D0003946FBF73FFF0020F8BDF8B504460D4601
:1051E00016461F461121490108593B4632462946B9
:1051F000FCF746F90020F8BD10B504464023002214
:1052000011462046FFF7DAFF4021FF2011300151FF
:105210004023002280212046FFF7D0FF4021216259
:105220000121FF20FD3001554320C0000059002816
:1052300006D0217985208000005942682046904799
:10524000002010BD0146FF20FE30425C401E42544B
:105250000020704710B50446FF20FD30005D032894
:105260000BD1852080000059C069002805D0852019
:1052700080000059C16920468847002010BD0246C1
:1052800011740020704770B504460D461121490184
:1052900008592946FCF7B0FC002070BD70B50446E3
:1052A0000D4629464120C000201800F067F8012172
:1052B000FF20F53001514120C0002018C188FF2097
:1052C000F93001514120C000005DC006C00E002829
:1052D00004D0012809D0022815D10DE04120C000DA
:1052E0002118204600F042F917E04120C0002118A3
:1052F000204600F029FA10E04120C0002118204685
:1053000000F06DF909E04120C000005D80221040EE
:105310000146204600F004F800BF00BF002070BD29
:1053200070B504460D461121490108592946FCF77C
:1053300059F9002070BD10B50446112149010859E2
:10534000FCF784FC002010BD0146FF20FD30425CCC
:10535000401C42540422401E425400207047F8B5BD
:1053600004460D4616461F461121490108593B4681
:1053700032462946FCF7AEF90020F8BD0A780270E3
:105380004A7842708B78CA7812029A1842800B7958
:105390004A7912029A1882808B79CA7912029A1875
:1053A000C280704702460020002903D085239B005D
:1053B000995000E00220704701460020704770B508
:1053C00004460D46A888002825D1E888002822D167
:1053D000A8784606760EFF20FD30005D032804D134
:1053E00029462046FFF762FB19E0FF20FF300655F3
:1053F00031462046FFF747FF2046FFF798FB002E77
:1054000004D00221FF20FD30015508E00121FF20DA
:10541000FD30015503E029462046FFF747FB70BDEC
:1054200070B504460D4602268520800000590028EC
:1054300009D08520800000592946026820469047FF
:10544000002800D10026304670BD000070B504462B
:105450000D46A8783649087008460078012804DD12
:1054600029462046FFF722FB60E0FF20FD30005D6B
:10547000022802D0032853D11EE02D4800780028CE
:1054800016D02B48007860600321FF20FD300155C5
:10549000274801782046FFF7C3FF022804D1294698
:1054A0002046FFF703FB70BD2046FFF740FB02E0FC
:1054B0002046FFF73CFB38E01D48007800280FD15C
:1054C0000221FF20FD30015519480078606018481E
:1054D00001782046FFF7A1FA2046FFF728FB1EE0DF
:1054E000134909786068884216D021792046FFF771
:1054F00094FA0F48007860600D4801782046FFF765
:105500008FFF022804D129462046FFF7CFFACAE7C9
:105510002046FFF70CFB02E02046FFF708FB04E003
:1055200029462046FFF7C2FA00BF00BF00BFBAE716
:105530001001002070B504460D46688801280DD181
:1055400001218120800001518520800000592946D9
:105550008268204690472046FFF7E9FA70BD10B5F3
:1055600004462046FFF7E7FE002010BD70B5054653
:105570000C4600266078030000F022F90A1A24295C
:105580001F290B062915102921462846FFF7A5FBE0
:1055900022E021462846FFF712FF1DE0214628465B
:1055A000FFF754FF18E021462846FFF76DFB13E094
:1055B00021462846FFF74EFC0EE021462846FFF71D
:1055C000B9FF09E021462846FFF733FA04E02146F7
:1055D0002846FFF76BFA00BF00BF304670BDF8B534
:1055E00005460E460020009034793078602108404E
:1055F000202808D1852080004059314682682846FD
:1056000090470020F8BD707800285FD001282FD087
:10561000032876D1FF20FD30405D022802D0032808
:105620001FD108E0002C05D0802C03D0214628464D
:10563000FFF776FE1AE07088002807D1002C05D00D
:10564000802C03D021462846FFF76AFE8520800083
:10565000405931468268284690472846FFF767FA46
:1056600004E031462846FFF721FA00BF00BF68E09A
:10567000FF20FD30405D022802D003281FD108E042
:10568000002C05D0802C03D021462846FFF748FE89
:105690001AE07088002811D16006400E00280AD058
:1056A00021462846FFF742FC8520800040593146BC
:1056B0008268284690472846FFF739FA04E03146C9
:1056C0002846FFF7F3F900BF00BF3AE0FF20FD30A6
:1056D000405D022802D003282BD108E06006400E6E
:1056E000002803D021462846FFF71AFE26E0802036
:1056F0002040802806D16006410D28461430081845
:1057000005E01DE06006410DE81DFD300818074664
:1057100021462846FFF736FD002802D001203860D8
:1057200001E000203860022239462846FFF7EDF9F3
:1057300004E031462846FFF7B9F900BF00BF00E09A
:1057400000BF00BF00985DE770B504460D46002617
:10575000FF20FD30005D032817D1287901280FDCD8
:105760008520800000592946826820469047E888B5
:10577000002809D1002E07D12046FFF7D8F903E011
:1057800029462046FFF792F904E029462046FFF714
:105790008DF900BF00BF002070BD70470146014871
:1057A00070470000181D002010B5034800F0FEFCF3
:1057B0000248FCF7A1F810BD3C2C0020F81A00208C
:1057C00030B47446641E2578641CAB4204D3635D18
:1057D0005B00E31830BC18471D46F8E702E008C834
:1057E000121F08C1002AFAD170477047002001E05B
:1057F00001C1121F002AFBD1704700001FB5FBF743
:10580000B9F9FEF729FA00F075FB0022FF210131FA
:105810000920C006FBF79BF80022FF2101316348F5
:10582000FBF795F8002240216048FBF790F8002232
:1058300080215E48FBF78BF80022012149025B487A
:10584000FBF785F800F082F9039000F0EDF800F026
:1058500057FC00F079FC00F019FE00F037FE00F074
:105860006BFE00F0A3FE01F053F801F075F8039809
:1058700001F0C2F84E4A80214E4800F0A1FA4E4A8B
:1058800080214E4800F09CFA4C494D4800F01EFF24
:10589000FDF7EAFD4B487D2109014B4A1423009294
:1058A0000191029020224949494800F0A9F90120BC
:1058B00001F076F8012001F08FF8012000F08EF958
:1058C0000122D1034348FBF742F84348FDF7C2F9F0
:1058D000012001F0E5F81420FAF7DAFE01F0D2F821
:1058E00002E00A20FAF7D4FE80213848FBF722F8BC
:1058F0000128F6D101F0A6F857E072B637480668DD
:1059000062B6002E2DD072B6354807683548046857
:1059100062B6412F02D0422F1CD10DE072B6324840
:1059200060433249086062B601F09EF872B6012009
:105930002F49086062B60EE0002C05D072B6012037
:105940002C49086062B604E072B60020294908605C
:1059500062B600E000BF00BF002020490860204977
:10596000086072B62248056862B6204800680028C0
:1059700008D1012D06D101F085F872B600201C492E
:10598000086062B61C48006800280BD1022D09D1BE
:1059900001F06AF872B60A2014490860012014491F
:1059A000086062B60120FAF773FEA6E70008004817
:1059B00000200020501F0020801F0020381F0020E2
:1059C0001C2E0020696A0008856A00080010004843
:1059D000402E0020000C0048F02E0020A8160020C9
:1059E000AC160020B016002060EA00009C160020D3
:1059F000B4160020A4160020A016002070B505469D
:105A00000C462C6006202168486105480549096854
:105A1000096888622046FAF7E7FD002070BD0000A3
:105A20004F3300007830002010B50F480F49086050
:105A30000020486000210D488160C16001210161A2
:105A40000421416100218161C161012101620021C4
:105A50004162C162016301214163FAF7A5FC034978
:105A60000348FFF7CBFF10BD002401402C2F00207E
:105A70007830002070B505462C68206800688021C9
:105A80000840802801D1206840682068006804210F
:105A9000084004281AD1206840680840042815D11D
:105AA000606C10210840002803D1606C4901084354
:105AB00060642068006C81B21E480268006818307B
:105AC0001C4B18601182042021680860206800685F
:105AD0000821084008280AD12068406808400828A2
